{"abi":[{"type":"function","name":"getDigest","inputs":[{"name":"commit","type":"bytes32","internalType":"bytes32"},{"name":"nonce","type":"uint256","internalType":"uint256"}],"outputs":[{"name":"digest","type":"bytes32","internalType":"bytes32"}],"stateMutability":"view"},{"type":"function","name":"sponsorCall","inputs":[{"name":"authority","type":"address","internalType":"address"},{"name":"commit","type":"bytes32","internalType":"bytes32"},{"name":"v","type":"uint8","internalType":"uint8"},{"name":"r","type":"bytes32","internalType":"bytes32"},{"name":"s","type":"bytes32","internalType":"bytes32"},{"name":"to","type":"address","internalType":"address"},{"name":"data","type":"bytes","internalType":"bytes"}],"outputs":[{"name":"success","type":"bool","internalType":"bool"}],"stateMutability":"nonpayable"}],"bytecode":{"object":"0x608060405234801561001057600080fd5b506103ba806100206000396000f3fe608060405234801561001057600080fd5b50600436106100365760003560e01c80635bc928a71461003b578063d089105b146100a7575b600080fd5b610094610049366004610257565b604051600160fa1b6020820152466021820152604181018290523060618201526081810183905260009060a10160405160208183030381529060405280519060200120905092915050565b6040519081526020015b60405180910390f35b6100ba6100b5366004610295565b6100ca565b604051901515815260200161009e565b60006100d989898989896101b6565b6101215760405162461bcd60e51b8152602060048201526014602482015273105d5d1a1bdc9a5e985d1a5bdb8819985a5b195960621b60448201526064015b60405180910390fd5b6101638484848080601f016020809104026020016040519081016040528093929190818152602001838380828437600092018290525092508291506102169050565b9050806101aa5760405162461bcd60e51b815260206004820152601560248201527410d85b1b08195e1958dd5d1a5bdb8819985a5b1959605a1b6044820152606401610118565b98975050505050505050565b6000806101c28561022e565b60405160f89190911b6001600160f81b0319166020820152602181018590526041810184905260618101879052608101604051602081830303815290604052905080516020820188f6979650505050505050565b6000806000855160208701868987f795945050505050565b6000602382106001811461024a57600260238403069150610251565b601c831491505b50919050565b6000806040838503121561026a57600080fd5b50508035926020909101359150565b80356001600160a01b038116811461029057600080fd5b919050565b60008060008060008060008060e0898b0312156102b157600080fd5b6102ba89610279565b975060208901359650604089013560ff811681146102d757600080fd5b955060608901359450608089013593506102f360a08a01610279565b925060c089013567ffffffffffffffff8082111561031057600080fd5b818b0191508b601f83011261032457600080fd5b81358181111561033357600080fd5b8c602082850101111561034557600080fd5b602083019450809350505050929598509295989093965056fea2646970667358221220d132a402a574b20c51474c3417a912191a54ffdf72b97693f4a38c9616e50ad964736f6c637828302e382e32342d646576656c6f702e323032342e342e32352b636f6d6d69742e31383761313738610059","linkReferences":{}},"methodIdentifiers":{"getDigest(bytes32,uint256)":"5bc928a7","sponsorCall(address,bytes32,uint8,bytes32,bytes32,address,bytes)":"d089105b"},"id":25}